:100000007580FF7530007530007A1412004FDAFBEE
:10001000D286C2871200BFD287C28612009A75307C
:10002000017A0A120064DAFBC286C2871200BF128C
:10003000009A7580FF7530017A05120064DAFBC200
:1000400087C2867A0275300312010CDAFB80B7751D
:1000500080FF7580FFC287D28612010CC286D287CC
:1000600012010C227580FFC287C28612010CD28653
:10007000D28712010C22D28312010CC283D28212C7
:10008000010CC282D28112010CC281D28012010CF9
:10009000C280D28412010CC284227530037902110D
:1000A00076D9FC75300279041176D9FC7530017966
:1000B000081176D9FC75300079201176D9FC2275AB
:1000C000300379021200E8D9FB753002790412007E
:1000D000E8D9FB75300179081200E8D9FB753000CA
:1000E00079201200E8D9FB22D28412010CC284D2FA
:1000F0008012010CC280D28112010CC281D2821204
:10010000010CC282D28312010CC28322E530B400FA
:100110000312013FB40103120138B4020312012E8D
:10012000B403031201272212012E12012E22120102
:100130003812013812013F2212013F12013F22758D
:100140008901758AB0758C3CD28C308DFDC28CC211
:020150008D22FE
:00000001FF
