:100000007530007531007532007533007534007538
:1000100035007536007537FE753880753940753A8C
:1000200020753B10753C08753D02753E01753F001B
:100030007840760008B850FA7590FF75B0FF12004E
:10004000461200B580F87E0512004EDEFB227BFFD3
:100050007590FF75B0FFDB097590FF75B0FF02006A
:10006000B4EBB53002C290B53102C291B53202C2D2
:1000700092B53302C293B53402C294B53502C2952B
:10008000B53602C296B53702C297B53802C2B0B5CE
:100090003902C2B1B53A02C2B2B53B02C2B3B53CF5
:1000A00002C2B4B53D02C2B5B53E02C2B6B53F020A
:1000B000C2B780A222AF3078317930E6F70908B9AB
:1000C0004FF98F4F22AF3F783E793FE6F71918B9C5
:1000D00030F98F30227830740093F608A3B840F7D7
:1000E00022020F1E3C6496C8FE141414FE0A141457
:1000F000FE021464FEFE641402FE3205050505329C
:01010000FE00
:00000001FF
