:0300000002000EED
:10000B0002007875890175A882D28CD28D7531006A
:10001B0075300112006078FF7534FF12005012002A
:10002B0093D8F578FF7535FF12003F120093D8F582
:10003B0080E180D9C3E5309535F535E5319400F590
:10004B003112006022E5302534F530E5313400F50E
:10005B003112006022C0E0E530F4F532E531F4F501
:10006B0033C3E5322401E5323400D0E02230000CFA
:10007B0075900085318C85308AC200327590FF8572
:10008B00338C85328AD20032C000C001C0027A1490
:10009B0078327964D9FED8FADAF6D002D001D000E2
:0100AB002232
:00000001FF
