:1000000012054A7530007531007532007533007580
:100010003400753500753600753700753800753950
:1000200000753A00753B00753C00753D00120032CA
:1000300080FB1202AF1202DA120305120349120307
:100040000512034912021112024D12038D1203A66A
:100050001203BF1203D81203F112040A120289120A
:10006000029C12010E12014F12017B1201A7120114
:10007000DC1203D81203F112040A12021112024D0B
:1000800012028912029C12038D1203A61203BF12E0
:10009000010E12021112024D22C0601200A4D5609E
:1000A000FAD06022C000C0E078400200BCD80D75D4
:1000B000900075B000D2B7C2B7020109E8B53002AE
:1000C000D297B53102D296B53202D295B53302D26B
:1000D00094B53402D293B53502D292B53602D2919C
:1000E000B53702D290B53802D2B4B53902D2B5B51F
:1000F0003A02D2B2B53B02D2B3B53C02D2B0B53D62
:1001000002D2B1D2B7C2B780A4D0E0D000227562CB
:100110003075633D75601475660512048C7E0D7C28
:100120000D9005D475643075623075650875601E74
:1001300012043D7560148C691204EF1199D569F8A9
:100140001C1563DEE575650875601E12043D22C04E
:100150006790060875623075633D1204A685626477
:1001600075600A7565089005D48563670567120494
:100170003D0564E564B567F6D06722C06790063038
:1001800075623075633D1204A685626475600A75F8
:1001900065089005DC12043D0564E5648563670528
:1001A00067B567F1D06722C004C067900608756222
:1001B0003075633D1204A67560147565019005D411
:1001C00085636705677D0885626412043D0564E503
:1001D00064B567F6A3DDF0D067D00422C004C06721
:1001E00090063075623075633D1204A67560147513
:1001F00065019005DC85636705677C08856264128C
:10020000043D0564E564B567F6A3DCF0D067D0046F
:1002100022C0049006087562307563451204A690EA
:1002200005D475623E7563451204A6756230756328
:100230004575601E7C0E1204EF1199DCF97C0812E2
:1002400004EF783D76401199DCF5D00422C004908B
:1002500006087562307563451204A69005DC756268
:100260003E7563451204A675623075634575601E60
:100270007C0E1204C01199DCF97C081204C078309D
:1002800076401199DCF5D004229005D47562307562
:10029000633D75650875602812045A229005DC7567
:1002A000623075633D75650875602812045A2290A6
:1002B000060875623075633D1204A67564307C0EC5
:1002C0009005D475650875600512043D9005DC75D0
:1002D000650812043D0564DCE7229006087562306B
:1002E00075633D1204A675643D7C0E9005D475655A
:1002F0000875600512043D9005DC75650812043D23
:100300001564DCE72290060875623075633D1204BF
:10031000A69005D475623E7563451204A67C0A90CA
:1003200005D475650875643075600512043D900547
:10033000DC12043DDCE97562307563457560147C40
:10034000161204EF1199DCF92290060875623075D7
:10035000633D1204A69005DC75623E756345120488
:10036000A67C0A9005D475650875643D7560051214
:10037000043D9005DC12043DDCE97562307563458F
:100380007560147C161204C01199DCF9229005BD29
:1003900075616475601E7562307563461204A6123D
:1003A00004231204302290055B75616475601E752C
:1003B000623075633D1204A61204231204302290A9
:1003C00005A175616475601E75623075633D120428
:1003D000A6120423120430229005AF756164756083
:1003E0001E75623075633D1204A612042312043098
:1003F0002290056975616475601E75623075633D94
:100400001204A61204231204302290057775616449
:1004100075601E75623075633D1204A612042312C6
:10042000043022C0611204EF1199D561F8D0612225
:10043000C0611204C01199D561F8D06122C000C01A
:1004400083C082C065A864740093F6A31199D56532
:10045000F6D065D082D083D00022C000C001C08316
:10046000C082C065C0678563670567A86274009332
:10047000F9E9F6F908E8B567F81199A3D565ECD064
:1004800067D065D082D083D001D00022C000C06781
:100490008563670567A862E566F6119908E8B567A0
:1004A000F6D067D00022C000C0678563670567A8E3
:1004B00062740093F608A3E8B567F6D067D000220F
:1004C000C000C001C002C06712051E4019856267E6
:1004D000A867E6FAA8670567A967E7F60809E8B517
:1004E00063F8A863EAF6D067D002D001D00022C03A
:1004F00000C001C002C06712051E4019856367A8CD
:1005000067E6FAA8671567A967E7F61819E8B562FC
:10051000F8A862EAF6D067D002D001D00022E562E6
:10052000B56304C302052E4004D302052EC322C3C3
:10053000E5829561F582E5839400F58322E58225C5
:1005400061F582E5833400F58322C001C00078FFA5
:1005500079FFD9FED8FAD000D00122050A141E284E
:1005600032404032281E140A05050A1E401E0A05A4
:10057000050A1E401E0A05403B37322E29241F1B48
:1005800016120D090401020408102040010204089B
:1005900010204040201008040201402010080402EE
:1005A000010102040810204040201008040201400C
:1005B0002010080810201008040810204001020430
:1005C0000810100804020102040810204040201006
:1005D0000804020100010204081020404020100815
:1005E000040201000004080C1012161A1E22262A0A
:1005F0002E3236383C40403C3836322E2A26221ED7
:100600001A1612100C080400000000000000000080
:1006100000000000000000000000000000000000DA
:1006200000000000000000000000000000000000CA
:1006300040404040404040404040404040404040BA
:1006400040404040404040404040404040404040AA
:10065000404040404040404040404040404040409A
:0606600040404040404014
:00000001FF
