:03000000020026D5
:10001B00758D3C758BB5D200B2013275891075A800
:10002B0088754202754305754402754102D28ED222
:10003B008F75B0FF7521F0D208D209D20AD20B7599
:10004B0047FA75487D754928754A051200CB120091
:10005B008F1200FF3002F7C20275B0FF12007F1241
:10006B0000CB80EAAB4778487947E6F70908B84BED
:10007B00F98B4A22AB4A7849794AE6F71918B84600
:10008B00F98B4722DC0CB208200805AC3002009D2E
:10009B00AC31DD0CB209200905AD320200ABAD333A
:1000AB00DE0CB20A200A05AE340200B9AE35DF0C05
:1000BB00B20B200B05AF360200C7AF378521B0223C
:1000CB0085473174FFC39547F53085483374FFC3BB
:1000DB009548F53285493574FFC39549F534854A02
:1000EB003774FFC3954AF53622B40003048004B479
:1000FB00FF011422300022C200D54205B202754224
:10010B0002D54315B203754305D5440DB2047544AE
:0A011B0002D54105B205754102222C
:00000001FF
