:03000000020024D7
:10001B00758D3C758BB5D2003275891075A88875B6
:10002B004114D28ED28FD290D291D292D293754765
:10003B001475485C7549A4754AFE12008612004D72
:10004B0080FBDC0CB290209005AC3002005BAC3135
:10005B00DD0CB291209105AD32020069AD33DE0C9F
:10006B00B292209205AE34020077AE35DF0CB2931C
:10007B00209305AF36020085AF372285473074FFDA
:10008B00C39547F53185483274FFC39548F53385E1
:10009B00493474FFC39549F535854A3674FFC395CA
:1000AB004AF53722B40003048004B4FF0114223054
:0B00BB000008C200D54103754114226B
:00000001FF
