:03000000020026D5
:10001B00758D3C758BB5D200B2013275891075A800
:10002B0088754202754305754402754102D28ED222
:10003B008F75900075B0007547FE75486475493231
:10004B00754A0A1200E712008412011B3002F7C234
:10005B00021200741200E780EDAB4778487947E64F
:10006B00F70908B84BF98B4A22AB4A7849794AE62B
:10007B00F71918B846F98B4722DC0D1200C72090F0
:10008B0005AC30020093AC31DD0D1200D020910590
:10009B00AD320200A2AD33DE0D1200D9209205AEB7
:1000AB00340200B1AE35DF0D1200E2209305AF36FE
:1000BB000200C0AF378525908526B022B228B22921
:1000CB00B230B23122B22AB22BB232B23322B22CBC
:1000DB00B22DB234B23522B22EB22F2285473174F3
:1000EB00FFC39547F53085483374FFC39548F53208
:1000FB0085493574FFC39549F534854A3774FFC379
:10010B00954AF53622B40003048004B4FF0114228F
:10011B00300022C200D54205B202754202D543150A
:10012B00B203754305D5440DB204754402D54105A0
:06013B00B205754102222D
:00000001FF
