:03000000020029D2
:10001B00758DD8758BF0D204D200120128327589F8
:10002B001075A888D28ED28F75500575510A7552EE
:10003B003275400075412475424975436D75449185
:10004B007545B57546D97547FF12010212007078D8
:10005B003F7940E7F60908B948F9853F4712010295
:10006B0012007080EA1200793001FAC20122D530F9
:10007B000EB29020900685603002008A855030D5F4
:10008B00310EB29120910685613102009B85513171
:10009B00D5320EB2922092068562320200AC8552A6
:1000AB0032D5330EB2932093068563330200BD85A0
:1000BB005333D5340EB2942094068564340200CEAB
:1000CB00855434D5350EB2952095068565350200DD
:1000DB00DF855535D5360EB29620960685663602E7
:1000EB0000F0855636D5370EB297209706856737C1
:1000FB000201018557372278407950E612011DF72E
:10010B000809B848F678507960E6F4F70809B8584A
:10011B00F822B40003048004B4FF01142230041C41
:10012B00C204D55007D201B2B7755005D55105D2CF
:0D013B000275510AD55205D20375523222C9
:00000001FF
