:0300000002000DEE
:10000B00805575890275A882C201D28CD28D75304C
:10001B000112005612008D7819E530240A3002FDCA
:10002B00F53012005612008DD8EF3002FD7530FFFF
:10003B0012005612008D78193002FDE530940AF546
:10004B003012005612008DD8EF80C3C0E0E530F4BB
:10005B002401F531D0E02230001375900085308AF1
:10006B0030010785308AC200D201B201327590FF90
:10007B0085318A30010785318AD200D201B201B2B3
:10008B000232C000C00178C879FFD9FED8FAD0017E
:03009B00D0002270
:00000001FF
