:100000007530FE7531C875329675336475343C753C
:10001000351E75360F75370575B0FF9000FD12005F
:10002000F17D6412007D1200E1DDF89001051200FF
:10003000F17D6412007D1200D1DDF890010D1200F7
:10004000F17D6412007D1200E1DDF890010D1200D7
:10005000F17D6412007D1200D1DDF89001151200CF
:10006000F17D6412007D1200D1DDF89001151200BF
:10007000F17D6412007D1200E1DDF8809E7E141295
:100080000085DEFB227BFF7590FFDB097590FF7515
:10009000B0FF0200D0EBB53004C290C2B0B531045D
:1000A000C291C2B1B53204C292C2B2B53304C29396
:1000B000C2B3B53404C294C2B4B53504C295C2B556
:1000C000B53604C296C2B6B53704C297C2B780BA75
:1000D00022AF3078317930E6F70908B937F98F3730
:1000E00022AF3778367937E6F71918B930F98F30FB
:1000F000227830740093F608A3B838F722020F1E56
:100100003C6496C8FE141414FE0A1414FE0214640F
:0D011000FEFE641402FE320505050532FEF8
:00000001FF
