:0300000002001EDD
:03000B0002040AE2
:10001B0002042175891275980075A88A90048E8543
:10002B0083238582247531011202C5D28CD28DD2E5
:10003B008ED28F759000C293D29712020C7540002E
:10004B00754100754200754300754400C20CC20D2A
:10005B00D20EC20CD20DD20E9006C67A047549018F
:10006B0012007D75471012018B120334053BDAED3C
:10007B0080E0C001A9491202393009FAC209D9F648
:10008B00D00122C001A949120239300AFAC20AD999
:10009B00F6D00122C001A9491202393001FAC2017E
:1000AB00D9F6D00122C001A9491202393002FAC295
:1000BB0002D9F6D00122C001A9491202393003FA44
:1000CB00C203D9F6D00122C001C00078507910E6E6
:1000DB00D3300F04130200E433F608D9F2D000D06A
:1000EB000122C000C001C002785079517A10E7F6A6
:1000FB000809DAFA785F76FFD000D001D00222C06F
:10010B0000C001C002785F795E7A10E7F61819DA41
:10011B00FA785076FFD002D001D00022C000C00187
:10012B00C002C003C0047548017C08300705785035
:10013B00020140785F7A101202393009FAE6AB48B7
:10014B004BFBC000E82410F8E65BD000F6F6C209C2
:10015B003007040802016318120239DADAB207E534
:10016B0048C333F548DCC4D004D003D002D001D04F
:10017B000022C3E5829547F582E5839400F583223F
:10018B00E5822547F582E5833400F58322C000C064
:10019B0001C002C0037B08785079607A10E7D33333
:1001AB00F7E633F60809DAF5120239300AFAC20A11
:1001BB00DBE5D000D001D002D00322C000C001C0CB
:1001CB00027850796076007A101202393002FAC246
:1001DB0002E7F60908DAF2D000D001D00222C00003
:1001EB00C001C002785F796F76007A101202393045
:1001FB0002FAC202E7F61819DAF2D000D001D002E7
:10020B0022753B00120334753000780079007A00B8
:10021B007B007C007D007E007F0075220175250030
:10022B0022785079607A10E6F70809DAFA22300D55
:10023B0005E527020243E528300C01F41203953043
:10024B000D05E528020254E527300C01F412039545
:10025B00D297C2971202D1D29312039DC29322C09E
:10026B0000C001C002C0037827795F7B027A088542
:10027B0022F0E784A2E0E6300D043302028A13F683
:10028B0019DAEC08DBE775F002E522A40FF522BFC3
:10029B0008057522017F00D003D002D001D00022C7
:1002AB00C000C001C0027A1079507800E893F709BA
:1002BB0008DAF9D002D001D00022C0E0E531F424F5
:1002CB0001F532D0E022C0E01202EDE59054F84582
:1002DB0030F5900530E530B408057530007F00D05F
:1002EB00E022E530B40006853331020331B4010658
:1002FB00853431020331B40206853531020331B442
:10030B000306853631020331B40406853731020307
:10031B0031B40506853831020331B406068539310F
:10032B00020331853A3151C522C001C000C082C0E1
:10033B0083E53BB4000690042E020380B4010690C3
:10034B000436020380B4020690043E020380B40319
:10035B0006900446020380B4040690044E02038008
:10036B00B40506900456020380B4060690045E02A0
:10037B00038090046678337908740093F608A3D948
:10038B00F8D083D082D000D00122F5993099FDC2EC
:10039B009922E53BB40803753B00D28C1203C8517C
:1003AB006A300E0251ABC001C00279027A64DAFEE8
:1003BB00D9FAD002D001C28CD294D2952230083C0B
:1003CB000540E540B40535754000B2090542E542EC
:1003DB00B40205754200B20A0544E544B403057541
:1003EB004400B2010543E543B40405754300B20272
:1003FB000541E541B41405754100B203C20822C2A0
:10040B0094D29530000685318AC20032C295D294BF
:10041B0085328AD20032758BF0758DD8D28ED20888
:10042B00B20B320121416185A6C7FEFEC7A68561CD
:10043B00412101010141418585FFFFFFC785856191
:10044B00610101014161FEFE6141010101010101F7
:10045B00010101FEFEFEFEFEFEFEFE7F7F7F7F7F23
:10046B007F7F7FFFFFFFFFFEFDFBF7EFDFBF7FFF10
:10047B00FFFFFFC1BFBFC1FFF3E1C183DBE9F3FFA7
:10048B00BD81BDFFFFFFFFFFFFFFFFFFFFFFFFFF73
:10049B00FFFFFFFF8181E7E78181FFFF8381E5E5B7
:1004AB008183FFFF8181EDE1F3FFFFFF8181EDE1AF
:1004BB00F3FFFFFFF1B1AFAF81C1FFFFFFFFFFFF05
:1004CB00FFFFFFFF8181F3CF8181FFFF8181A5A515
:1004DB00A5FFFFFFC1BF8F8FBFC1FFFFFFFFFFFF57
:1004EB00FFFFFFFF8381E5E58183FFFF8181EDCD79
:1004FB00B3BFFFFFFFFFFFFFFFFFFFFFBB9D8DA103
:10050B00B3FFFFFFFFC3BDBD81C3FFFFFFF7BB8180
:10051B0081BFFFFFFFC3BDBD81C3FFFFFFFFFFFF18
:10052B00FFFFFFFFFFFFFFFFFFFFFFFFFFFFC3BD4E
:10053B006A5E5E6ABDC3FFFFFFFFFFFFFF93018390
:10054B000183018301830183FFFFFFFFFFFFFFFF98
:10055B00FFFFFFFFFFFFFFFFFFFFFFFFE1CF9F9FAE
:10056B00CFE1FFFFE781A5BD81C3FFFF8181E3C918
:10057B009DBFFFFFFFFFFFFFFFFFFFFF936D6D6D44
:10058B0093FFFFFF8379756D5D83FFFFB175757504
:10059B00058FFFFFF73B01013FFFFFFFFFFFFFFF52
:1005AB00FFFFFFFFFFFFFFFFFFFFFFFFFFFFFFFF50
:1005BB00FFFFFFFFFFFFFFFFFFFFFFFFC1BF8F8F9E
:1005CB00BFC1FFFF8181A5A5A5FFFFFFFF81819F14
:1005DB009FFFFFFFC381BDBDBDDBFFFFC381BDBD62
:1005EB0081C3FFFF8181F3F38181FFFF8181A5A58A
:1005FB00A5FFFFFFFFFFFFFFFFFFFFFFFFFFFFFF5A
:10060B00FFFFFFFFFFFFFFFFFFFFFFFFFFFFFFFFEF
:10061B00FFFFFFFFC381BDADCD8BFFFFC381BDBD11
:10062B0081C3FFFFC381BDBD81C3FFFFFF81BDBD83
:10063B0081C3FFFFFFFFFFFFFFFFFFFF8185959545
:10064B00CBFFFFFFF1B1AFAF81C1FFFF8181A5A54B
:10065B00A5FFFFFFFF7F4FC3F0FCFFFFFFFFFFFF77
:10066B00FFFFFFFFFFFFFFFFFFFFFFFFFFBD8181CD
:10067B00BDFFFFFFF3EDDDBBDDEDF3FFF3E1C18369
:10068B00C1E1F3FFC1819F9F81C1FFFFFFFFFFFF0F
:10069B00FFFFFFFFFFC3BDBD81C3FFFFFF81BDBDDB
:1006AB0081C3FFC3BD425A5A42BDC3FFFFC3C3C37D
:1006BB00C3C3C3C3C3C3C30081C3E7FFFFFFFFFEB5
:1006CB00FDFBF7EFDFBF7FFFFFFFFFFFFFFFEFEF4D
:1006DB00EFEFEFEFEFEFEFEFEFFFFFFFFFFFFFFFAF
:1006EB007FBFDFEFF7FBFDFEFFFFFFFFFFFFFFFF0E
:1006FB00FFFFFF00FFFFFFFFFFFFFFFFFFFFFFFEFF
:10070B00FDFBF700DFBF7FFFFFFFFFFFFFFFFFEFEB
:10071B00EFEFEFEFEFEFEFEFFFFFFFFFFFFFFF6FEE
:10072B00AFCFEFE7EBEDEEEFFFFFFFFFFFFFFFFFBD
:10073B00FFFFFF00FFFFFFFFFFFFFFFFFFFFFFFFBD
:10074B00FFFFFFFFFFFFFFFFFFFFFF0000000000A9
:10075B0000000000000000000000000080C0E0F07E
:0B076B00F8FCFE7F3F1F0F070301009A
:00000001FF
