:0300000002001EDD
:03000B000201C12E
:10001B000201D875891275980075A88A90020D7522
:10002B0031011200D1D28CD28DD28ED28F7590002D
:10003B00C293D297753B0012013E75300078007960
:10004B00007A007B007C007D007E00785079107672
:10005B00FFF408D9FA1201A912007A300AF7053B0E
:10006B00E53BB40503753B0012013EC20A80E678FE
:10007B00507908E612018808E612018808D297C267
:10008B00971200DDD293120190C293D9E622C000E1
:10009B00C001C00275230175220090020D7950AB8F
:1000AB0023A8227C027A08E893AB23C313DBFCE77B
:1000BB0013F708DAF209DCED0523E523B409E2D0E6
:1000CB0000D001D00222C0E0E531F42401F532D09A
:1000DB00E022C0E01200F7E59054F84530F59005AA
:1000EB0030E530B40803753000D0E022E530B400C1
:1000FB000685333102013BB4010685343102013BE5
:10010B00B4020685353102013BB403068536310254
:10011B00013BB4040685373102013BB40506853833
:10012B003102013BB4060685393102013B853A3178
:10013B0011D122E53BB400069001E5020167B40141
:10014B00069001ED020167B402069001F50201670A
:10015B00B403069001FD02016790020512016B22A8
:10016B00C000C001C082C08378337908740093F655
:10017B0008A3D9F8D083D082D001D00022F59930D2
:10018B0099FDC29922D28CC001C000790A7A64DA37
:10019B00FED9FAD000D001C28CD294D2952230086D
:1001AB00120DEDB4060D7D00B2090EEEB465047EA2
:1001BB0000B20AC20822C294D29530000685318C57
:1001CB00C20032C295D29485328CD20032758BF03C
:1001DB00758DD8D28ED208B20B320121416185A622
:1001EB00C7FEFEC7A68561412101010141418585FD
:1001FB00FFFFFFC7858561610101014161FEFE6162
:10020B0041017EFFFFFFFFFFFF7F7EFFFFFFFFFF31
:10021B00FFFF0000000000000000000000000000D5
:0A022B0000000000000000000000C9
:00000001FF
