:0300000002001EDD
:03000B00020410DC
:10001B0002042775891275980075A88A9004848547
:10002B0083238582247531011202D3D28CD28DD2D7
:10003B008ED28F759000C293D29712021A75400020
:10004B00754100754200754300754400C20CC20D2A
:10005B00D20ED20FC20CD20DC20E9004741202B982
:10006B0012023A9006BC1202B9753B0112034212FE
:10007B0001A9C2031202473003FA90052C1202B9F0
:10008B0012023A9006BC1202B9753B0612034212D9
:10009B0001A9C2031202473003FA7E031202473052
:1000AB0002FAC20212016FDEF37E12120247300A0D
:1000BB00FAC20A12018CDEF3900484D20EC20D75C3
:1000CB003B021203427EA0120247300AFA75470127
:1000DB0012020DC20ADEF090054C753B031203426F
:1000EB007EAB120247300AFA75470112020DC20AA3
:1000FB00DEF090053C753B001203427E081202476E
:10010B003003FAC203053B120342DEF1D20FC20EDB
:10011B007E0A1202473002FAC202120154DEF301C8
:10012B005F300A24A30525E525B4E81AB20D852313
:10013B0083852482752500053BE53BB40805753B9B
:10014B0000B20C120342C20A22C001C000785079DF
:10015B0010E6D3300F041302016633F608D9F2D040
:10016B0000D00122C000C001C002785079517A1032
:10017B00E7F60809DAFA785F76FFD000D001D002F3
:10018B0022C000C001C002785F795E7A10E7F618D2
:10019B0019DAFA785076FFD002D001D00022C000D5
:1001AB00C001C002C003C0047548017C08300705BC
:1001BB0078500201C2785F7A101202473009FAE6D2
:1001CB00AB484BFBC000E82410F8E65BD000F6F61A
:1001DB00C209300704080201E518120247DADAB245
:1001EB0007E548C333F548DCC4D004D003D002D0B4
:1001FB0001D00022C3E5829547F582E5839400F593
:10020B008322E5822547F582E5833400F583227549
:10021B003B00120342753000780079007A007B00B6
:10022B007C007D007E007F00752201752500227801
:10023B005079607A10E6F70809DAFA22300D05E5F5
:10024B0027020251E527300C01F41203A3300D05F0
:10025B00E528020262E528300C01F41203A3D297C1
:10026B00C2971202DFD2931203ABC29322C000C01B
:10027B0001C002C0037827795F7B027A088522F0E0
:10028B00E784A2E0E6300D043302029813F619DA84
:10029B00EC08DBE775F002E522A40FF522BF080599
:1002AB007522017F00D003D002D001D00022C00004
:1002BB00C001C0027A1079507800E893F70908DA88
:1002CB00F9D002D001D00022C0E0E531F42401F5D1
:1002DB0032D0E022C0E01202FBE59054F84530F535
:1002EB00900530E530B408057530007F00D0E02272
:1002FB00E530B4000685333102033FB40106853483
:10030B003102033FB4020685353102033FB40306C5
:10031B0085363102033FB4040685373102033FB4FF
:10032B00050685383102033FB406068539310203D1
:10033B003F853A3151D322C001C000C082C083E552
:10034B003BB4000690043402038EB4010690043CC7
:10035B0002038EB4020690044402038EB40306908B
:10036B00044C02038EB4040690045402038EB405AD
:10037B000690045C02038EB4060690046402038E9E
:10038B0090046C78337908740093F608A3D9F8D0ED
:10039B0083D082D000D00122F5993099FDC29922E9
:1003AB00D28C1203CE5178300E0251B9C001C0026B
:1003BB0079057A64DAFED9FAD002D001C28CD294D4
:1003CB00D2952230083C0540E540B4053575400018
:1003DB00B2090542E542B40205754200B20A054472
:1003EB00E544B40305754400B2010543E543B40489
:1003FB0005754300B2020541E541B4140575410092
:10040B00B203C20822C294D29530000685318AC24B
:10041B000032C295D29485328AD20032758BF07538
:10042B008DD8D28ED208B20B320121416185A6C77D
:10043B00FEFEC7A68561412101010141418585FF72
:10044B00FFFFC7858561610101014161FEFE6141CD
:10045B00010101010101010101FEFEFEFEFEFEFE96
:10046B00FE7F7F7F7F7F7F7F7FC1BFBFC1FFF3E1B8
:10047B00C183DBE9F3FFBD81BDFFFFFFFFFFFFFF83
:10048B00FFFFFFFFFFFFFFFFFFFF8181E7E7818199
:10049B00FFFF8381E5E58183FFFF8181EDE1F3FFC1
:1004AB00FFFF8181EDE1F3FFFFFFF1B1AFAF81C141
:1004BB00FFFFFFFFFFFFFFFFFFFF8181F3CF818175
:1004CB00FFFF8181A5A5A5FFFFFFC1BF8F8FBFC117
:1004DB00FFFFFFFFFFFFFFFFFFFF8381E5E5818349
:1004EB00FFFF8181EDCDB3BFFFFFFFFFFFFFFFFFDD
:1004FB00FFFFBB9D8DA1B3FFFFFFFFC3BDBD81C33D
:10050B00FFFFFFF7BB8181BFFFFFFFC3BDBD81C3F2
:10051B00FFFFFFFFFFFFFFFFFFFFFFFFFFFFFFFFE0
:10052B00FFFFFFFFC3BD6A5E5E6ABDC3FFFFFFFF38
:10053B00FFFFFF9301830183018301830183FFFF8E
:10054B00FFFFFFFFFFFFFFFFFFFFFFFFFFFFFFFFB0
:10055B00FFFFE1CF9F9FCFE1FFFFE781A5BD81C3E8
:10056B00FFFF8181E3C99DBFFFFFFFFFFFFFFFFF80
:10057B00FFFF936D6D6D93FFFFFF8379756D5D834A
:10058B00FFFFB1757575058FFFFFF73B01013FFF4E
:10059B00FFFFFFFFFFFFFFFFFFFFFFFFFFFFFFFF60
:1005AB00FFFFFFFFFFFFFFFFFFFFFFFFFFFFFFFF50
:1005BB00FFFFC1BF8F8FBFC1FFFF8181A5A5A5FF26
:1005CB00FFFFFF81819F9FFFFFFFC381BDBDBDDB90
:1005DB00FFFFC381BDBD81C3FFFF8181F3F3818128
:1005EB00FFFF8181A5A5A5FFFFFFFFFFFFFFFFFF1A
:1005FB00FFFFFFFFFFFFFFFFFFFFFFFFFFFFFFFF00
:10060B00FFFFFFFFFFFFFFFFFFFFC381BDADCD8BE3
:10061B00FFFFC381BDBD81C3FFFFC381BDBD81C3CF
:10062B00FFFFFF81BDBD81C3FFFFFFFFFFFFFFFF8B
:10063B00FFFF81859595CBFFFFFFF1B1AFAF81C177
:10064B00FFFF8181A5A5A5FFFFFFFF7F4FC3F0FC37
:10065B00FFFFFFFFFFFFFFFFFFFFFFFFFFFFFFFF9F
:10066B00FFFFFFBD8181BDFFFFFFF3EDDDBBDDEDC7
:10067B00F3FFF3E1C183C1E1F3FFC1819F9F81C10F
:10068B00FFFFFFFFFFFFFFFFFFFFFFC3BDBD81C3E9
:10069B00FFFFFF81BDBD81C3FFC3BD425A5A42BD9F
:1006AB00C3FFFFC3C3C3C3C3C3C3C3C3C30081C39C
:1006BB00E700000000000000000000000000000048
:1006CB00000080C0E0F0F8FCFE7F3F1F0F07030126
:0106DB00001E
:00000001FF
