:100000007540101201657538017537077539401252
:1000100000B27F14120165753801753700753930EB
:100020001200888530A01201657538017537017599
:1000300039311200888531B0120165753801753784
:1000400002753932120088853290DFC87F141201A0
:10005000657538017537047539331200888533901A
:1000600012016575380175370575393412008885B8
:1000700034B01201657538017537067539351200CF
:10008000888535A0DFC80100C000C0071200E31258
:1000900001267536D11200FCAF38A839120144127E
:1000A0000111A63608DFF5120158120135D007D02C
:1000B0000022C007C0001201267536D01200FC12C3
:1000C00001448537361200FC120144AF38A839E6E6
:1000D00008F5361200FC120144DFF4120135D0009D
:1000E000D007221201267536D01200FC1201448579
:1000F00037361200FC12014412013522C007E536E2
:100100007F08339281D280120176C280DFF4D0075B
:1001100022C0077F08D280A281120176C28033DF1D
:10012000F4F536D00722D281D280120179C2811231
:100130000179C28022C281C280120179D28012016B
:1001400079D28122C280C281120176D280120176D8
:10015000C280D28112017622C280D281120176D26F
:100160008012017622C007C0067FC87EF9DEFEDF5E
:10017000FAD006D00722000022C0077F05DFFED09C
:02018000072254
:00000001FF
