:03000000020026D5
:10001B00758D3C758BB0C28FD200321207D275A88A
:10002B0088758910D28FD28E7520FF754402754565
:10003B000575460275470275480A7D00752E807559
:10004B002200752300C208D294D293D292D291D2BD
:10005B0090C297C296C295752F241205B3D20DD2BA
:10006B00B7C28E12013D74CC120151744E12015164
:10007B0074641201517400120151741F1201511258
:10008B00013D74CC12015174481201517F191207B2
:10009B00D2DFFB12013D74CC12015174B812015125
:1000AB0030B7FDD28E12072B12079312018C30043E
:1000BB00F4754805C20412013D74CC12015174440D
:1000CB0012015112072B12079312018C30B7F41245
:1000DB00013D74CC12015174BE12015112016E54C8
:1000EB00F0C4F52F12016E5407C4452FF52F1205DE
:1000FB00B380B20DEDB407027D00EDB40006D2164D
:10010B00C215C214B40106C216D215C214B402062B
:10011B00C216C215D214B40306C216C215D214B439
:10012B000406C216D215C214B40506D216C215C2E5
:10013B001422C2B77525FAD525FDD2B775251ED564
:10014B0025FD30B7F722C0017908C2B7752507D551
:10015B0025FD1392B7752507D525FDD2B700D9EA32
:10016B00D00122C0017908C2B70000D2B7752505AE
:10017B00D525FDA2B713752532D525FDD9E9D001BB
:10018B002230943530931430920302031512072B4F
:10019B001207933092F7B20D02031512072B1207B9
:1001AB00933093F7E52EB2E4F52E753201753107D6
:1001BB0075332E12067002031512072B120793309C
:1001CB0094F71204C2D208D21812031630941E30C0
:1001DB00930530920D80F21203561203163093FAE8
:1001EB0080E71203611203163092FA80DC120316B9
:1001FB003094FAC218D21912031630941E3093059C
:10020B0030920D80F212036C1203163093FA80E7D2
:10021B001203771203163092FA80DC120316309415
:10022B00FAC219D21A12031630941E30930530926B
:10023B000D80F21203821203163093FA80E7120339
:10024B00921203163092FA80DC1203163094FAC223
:10025B001AD21B12031630941E30930530920D8068
:10026B00F21203A21203163093FA80E71203AD12B7
:10027B0003163092FA80DC1203163094FAC21BD2AA
:10028B001C12031630941E30930530920D80F2121F
:10029B0003B81203163093FA80E71203C312031646
:1002AB003092FA80DC1203163094FAC21CD21D1263
:1002BB00031630941E30930530920D80F21203CE4C
:1002CB001203163093FA80E71203D91203163092F9
:1002DB00FA80DC1203163094FAC21DD21E120316DA
:1002EB0030941E30930530920D80F21203E412030A
:1002FB00163093FA80E71203EF1203163092FA804E
:10030B00DC1203163094FA12032122120793120304
:10031B00FA12072B222279277860E61204E7C445EC
:10032B00F0F70908B92FF3753207753100753327CC
:10033B00120670E529C2E6F5297532017531027591
:10034B003329120670752300C208220560E560B4DC
:10035B003C03756000221560E560B4FF0375603BDC
:10036B00220561E561B43C03756100221561E5610D
:10037B00B4FF0375613B220562E562B41803756235
:10038B0000E5621205FE221562E562B4FF03756299
:10039B0017E5621205FE220563E563B40803756376
:1003AB0001221563E563B40003756307220564E559
:1003BB0064B42003756401221564E564B40003750D
:1003CB00641F220565E565B40D037565012215658E
:1003DB00E565B4000375650C220566E566B4640338
:1003EB00756600221566E566B4FF0375666322E544
:1003FB00601204E7301803300208F55B85F05A02EF
:10040B000413755B0A755A0AE5611204E730190388
:10041B00300208F55D85F05C02042C755D0A755C95
:10042B000AE5621204E7301A03300208F55F85F023
:10043B005E020445755F0A755E0AE5631204E730D8
:10044B001B0330021505F0F55985F058E5F0B4089B
:10045B000675580C75590B02046B75590A75580AB9
:10046B00E5641204E7301C03300208F55785F0569B
:10047B0002048475570A75560AE5651204E7301DA8
:10048B0003300208F55585F05402049D75550A7525
:10049B00540AE5661204E7301E03300208F5538553
:1004AB00F0520204B675530A75520A7852E61206D8
:1004BB0041F608B860F722E527C2E7F527E52930B2
:1004CB000A05541F0204D4543FF529782779608616
:1004DB00671204ECA7680809B82FF42275F00A8498
:1004EB0022E567C4540FB40006856768020512E560
:1004FB0067C39406F56875F00A84C445F0B56703C5
:10050B00020512E56880EA22E527540F120641F531
:10051B005AE527C45407120641F55B22E528540F10
:10052B00120641F55CE528C45407120641F55D221D
:10053B00E529540F120641F55EE529C4300A05542E
:10054B00010205515403120641F55F22E52A04B45A
:10055B000811740C120641F558740B120641F5592B
:10056B00020576120641F55875593F22E52B540FBB
:10057B00120641F556E52BC4540F120641F55722CE
:10058B00E52C540F120641F554E52CC4540F1206FA
:10059B0041F55522E52D540F120641F552E52DC4B8
:1005AB00540F120641F55322E52F75F00A841206FB
:1005BB0041F551E5F0120641F55022E5291205F0FF
:1005CB001205DDB113B127B13BB157B177B18BB187
:1005DB009F22E529A2E6920A300A07A2E5920902B8
:1005EB0005EFC20922B40005D20C0205FDB41202BC
:1005FB00C20C22B40005D20C02061BB41705C20CA8
:10060B0002061BB40C05C20C02061BB40B02D20C67
:10061B0022300D21300C08B4001B7412020640B4BA
:10062B0012057412020640F56791ECE568C3940C51
:10063B0091E7C445F0229007DF9322C000C0071258
:10064B0006A11206E47530D11206BAAF32A83312E6
:10065B0007021206CFA63008DFF51207161206F3B3
:10066B00D007D00022C007C0001206E47530D012AC
:10067B0006BA1207028531301206BA120702AF32E0
:10068B00A833E608F5301206BA120702DFF4120699
:10069B00F3D000D007221206E47530D01206BA123E
:1006AB0007028531301206BA1207021206F322C076
:1006BB0007E5307F08339290D291120723C291DF66
:1006CB00F4D00722C0077F08D291A290120723C251
:1006DB009133DFF4F530D00722D290D29112072656
:1006EB00C290120726C29122C290C291120726D243
:1006FB0091120726D29022C291C290120723D29157
:10070B00120723C291D29012072322C291D29012C8
:10071B000723D29112072322000022F123F1232277
:10072B007850754001754107E522754208A2E092A9
:10073B0097D296C29603D542F4754210E68540F0E7
:10074B0084A2E09297D296C29608D542EF78507564
:10075B004208E540A2E79297D296C29623D542F47F
:10076B00D295C295200815300312C2037532077556
:10077B003100753327D146B1C602078A1207C5E58A
:10078B004023F540D541A12230002EC200D54405AF
:10079B00B205754402D54521B20111FE754505D54B
:1007AB004617B202B217754602D5470DB20375470D
:1007BB0002D54805B20475480A22757F0C757E6414
:1007CB00D57EFDD57FF722757F64757EFAD57EFDCC
:1007DB00D57FF7223F065B4F666D7D077F6F003934
:0107EB0054B9
:00000001FF
