:03000000020026D5
:10001B00758D3C758BB0C28FD2003275A8887589EF
:10002B0010D28FD28E7520FF752712752834752943
:10003B0009752A07752B12752C10752D871203C79E
:10004B001202FF7544027545057546027547027528
:10005B00480A752E00752200752300C208D290D273
:10006B0091D292D2B4D2B5C297C296C295752F24B3
:10007B001204BED20D1204E81206491206B1120088
:10008B008E80F230903530911430920302021712A9
:10009B0006491206B13092F7B20D02021712064949
:1000AB001206B13091F7E52EB2E4F52E75320175DB
:1000BB00310775332E12058E0202171206491206EE
:1000CB00B13090F71203C7D208D218120218309031
:1000DB001E30910530920D80F212025B1202183025
:1000EB0091FA80E71202661202183092FA80DC1243
:1000FB0002183090FAC218D21912021830901E3022
:10010B00910530920D80F21202711202183091FAA1
:10011B0080E712027C1202183092FA80DC1202186D
:10012B003090FAC219D21A12021830901E30910573
:10013B0030920D80F21202871202183091FA80E78A
:10014B001202971202183092FA80DC1202183090C9
:10015B00FAC21AD21B12021830901E30910530923F
:10016B000D80F21202A71202183091FA80E71202E8
:10017B00B21202183092FA80DC1202183090FAC2D6
:10018B001BD21C12021830901E30910530920D803C
:10019B00F21202BD1202183091FA80E71202C81255
:1001AB0002183092FA80DC1202183090FAC21CD27C
:1001BB001D12021830901E30910530920D80F212F4
:1001CB0002D31202183091FA80E71202DE120218E3
:1001DB003092FA80DC1202183090FAC21DD21E1235
:1001EB00021830901E30910530920D80F21202E908
:1001FB001202183091FA80E71202F41202183092B0
:10020B00FA80DC1202183090FA120226221204E84D
:10021B001206B11202FF120649222279277860E6F4
:10022B001203ECC445F0F70908B92FF375320775C3
:10023B00310075332712058EE529C2E6F529753293
:10024B000175310275332912058E752300C2082200
:10025B000560E560B43C03756000221560E560B491
:10026B00FF0375603B220561E561B43C03756100DA
:10027B00221561E561B4FF0375613B220562E562FE
:10028B00B41803756200E56212051C221562E56263
:10029B00B4FF03756217E56212051C220563E56363
:1002AB00B40803756301221563E563B4000375633A
:1002BB0007220564E564B42003756401221564E527
:1002CB0064B4000375641F220565E565B40D037501
:1002DB006501221565E565B4000375650C2205669D
:1002EB00E566B46403756600221566E566B4FF0324
:1002FB0075666322E5601203EC301803300208F5D3
:10030B005B85F05A020318755B0A755A0AE5611290
:10031B0003EC301903300208F55D85F05C02033104
:10032B00755D0A755C0AE5621203EC301A03300244
:10033B0008F55F85F05E02034A755F0A755E0AE594
:10034B00631203EC301B0330021505F0F55985F0F1
:10035B0058E5F0B4080675580C75590B0203707507
:10036B00590A75580AE5641203EC301C0330020875
:10037B00F55785F05602038975570A75560AE565D8
:10038B001203EC301D03300208F55585F0540203BF
:10039B00A275550A75540AE5661203EC301E03303C
:1003AB000208F55385F0520203BB75530A75520AC6
:1003BB007852E612055FF608B860F722E527C2E728
:1003CB00F527E529300A05541F0203D9543FF529B7
:1003DB007827796086671203F1A7680809B82FF4AC
:1003EB002275F00A8422E567C4540FB400068567B2
:1003FB0068020417E567C39406F56875F00A84C4B0
:10040B0045F0B56703020417E56880EA22E5275437
:10041B000F12055FF55AE527C4540712055FF55B0C
:10042B0022E528540F12055FF55CE528C45407122A
:10043B00055FF55D22E52912053A540F12055FF5AC
:10044B005EE52912053AC4300A05540102045C54D6
:10045B000312055FF55F22E52A04B40811740C1230
:10046B00055FF558740B12055FF5590204811205EF
:10047B005FF55875593F22E52B540F12055FF55662
:10048B00E52BC4540F12055FF55722E52C540F12C0
:10049B00055FF554E52CC4540F12055FF55522E5A5
:1004AB002D540F12055FF552E52DC4540F12055F45
:1004BB00F55322E52F75F00A8412055FF551E5F02F
:1004CB0012055FF55022E52912050E1204FB911857
:1004DB00912C914091629182919691AA22300D07B5
:1004EB00C215D2140204F6D215C214A20C92162213
:1004FB00E529A2E6920A300A07A2E5920902050D48
:10050B00C20922B40005D20C02051BB41202C20CA4
:10051B0022B40005D20C020539B41705C20C020532
:10052B0039B40C05C20C020539B40B02D20C2230C3
:10053B000D21300C08B4001B741202055EB41205B9
:10054B00741202055EF56771F1E568C3940C71ECEA
:10055B00C445F0229006FB9322C000C0071205BFD2
:10056B001206027530D11205D8AF32A8331206200D
:10057B001205EDA63008DFF5120634120611D0076E
:10058B00D00022C007C0001206027530D01205D869
:10059B001206208531301205D8120620AF32A8334F
:1005AB00E608F5301205D8120620DFF4120611D03A
:1005BB0000D007221206027530D01205D812062081
:1005CB008531301205D812062012061122C007E51C
:1005DB00307F083392B5D2B4120641C2B4DFF4D0E7
:1005EB000722C0077F08D2B4A2B5120641C2B433AA
:1005FB00DFF4F530D00722D2B5D2B4120644C2B51F
:10060B00120644C2B422C2B5C2B4120644D2B4120A
:10061B000644D2B522C2B4C2B5120641D2B41206F8
:10062B0041C2B4D2B512064122C2B4D2B5120641B0
:10063B00D2B412064122000022D141D1412278507E
:10064B00754001754107E522754208A2E09297D2E9
:10065B0096C29603D542F4754210E68540F084A20B
:10066B00E09297D296C29608D542EF785075420821
:10067B00E540A2E79297D296C29623D542F4D29543
:10068B00C295200815300312C2037532077531006D
:10069B00753327B16491D10206A81206E1E5402318
:1006AB00F540D541A12230002CC200D54405B2053E
:1006BB00754402D5451FB201754505D54617B202E3
:1006CB00B217754602D5470DB203754702D54805DB
:1006DB00B20475480A22757F0A757E64D57EFDD5F6
:1006EB007FF722757F64757EFAD57EFDD57FF72265
:0D06FB003F065B4F666D7D077F6F0039374E
:00000001FF
