:03000000020026D5
:10001B00758D3C758BB0C28FD2003275A8887589EF
:10002B0010D28FD28E7520FF75440275450575462B
:10003B000275470275480AC297C296C2957522F09F
:10004B00752F0B12010E75275975282575291375F8
:10005B002A04752B15752C12752D10120121120205
:10006B001E12026E2003F7D203052FE52FB4640393
:10007B00752F0012010E80E6E527540F120134F59F
:10008B005AE527C45407120134F55B22E528540FB7
:10009B00120134F55CE528C45407120134F55D22D6
:1000AB00E529540F120134F55EE529C4304E055491
:1000BB00010200C15403120134F55F22E52A12013B
:1000CB0034F55875593F22E52B540F120134F55670
:1000DB00E52BC4540F120134F55722E52C540F12A3
:1000EB000134F554E52CC4540F120134F55522E5B7
:1000FB002D540F120134F552E52DC4540F12013457
:10010B00F55322E52F75F00A84120134F551E5F011
:10011B00120134F550221183119711AB11D211C773
:10012B0011E611FA222401D4229002B19322C000CD
:10013B00C0071201941201D77530D11201ADAF3245
:10014B00A8331201F51201C2A63008DFF51202091D
:10015B001201E6D007D00022C007C0001201D775EC
:10016B0030D01201AD1201F58531301201AD120103
:10017B00F5AF32A833E608F5301201AD1201F5DF09
:10018B00F41201E6D000D007221201D77530D0123D
:10019B0001AD1201F58531301201AD1201F51201DD
:1001AB00E622C007E5307F08339291D290120216F7
:1001BB00C290DFF4D00722C0077F08D290A2911221
:1001CB000216C29033DFF4F530D00722D291D290D1
:1001DB00120219C291120219C29022C291C290123C
:1001EB000219D290120219D29122C290C29112021C
:1001FB0016D290120216C290D29112021622C290FF
:10020B00D291120216D2901202162200002251161F
:10021B005116227850754001754107E52275420849
:10022B00A2E09297D296C29603D542F4754210E69D
:10023B008540F084A2E09297D296C29608D542EF01
:10024B007850754208E540A2E79297D296C2962362
:10025B00D542F4D295C2951202A4E54023F540D5C0
:10026B0041B922300032C200D54407B205B216752F
:10027B004402D54523B201B214754505D54619B2D2
:10028B0002B215754602D5470FB203B21775470276
:10029B00D54805B20475480A22757F0A757E64D568
:1002AB007EFDD57FF7223F065B4F666D7D077F6F27
:00000001FF
