:1000000012000E12004F1200901200FC80F27532A6
:10001000FF7533FF7F1075347F7535FFEFFEE534D4
:100020005532F580F590E5355533F5A0F5B0120160
:10003000D4AA34AB351201838A348B35DEE0AA3280
:10004000AB33C312019E8A328B331FBF00C82275A7
:1000500032FF7533FF7F1075347F7535FFEFFEE596
:10006000345532F580F590E5355533F5A0F5B012ED
:1000700001D4AA34AB351201688A348B35DEE0AA8C
:1000800032AB33C31201B98A328B331FBF00C8228F
:100090007532FF7533FF7536FF7537FF7F10753486
:1000A0007F7535FF7538FF7539FEEFFEE534553243
:1000B000F580E5355533F5A0E5385536F590E53949
:1000C0005537F5B01201D4AA34AB351201838A3406
:1000D0008B35AA38AB391201688A388B39DECDAA44
:1000E00032AB33C312019E8A328B33AA36AB37C38D
:1000F0001201B98A368B371FBF00A3227532FF75F4
:1001000033FF7536FF7537FF7F107534FF7535FE89
:1001100075387F7539FFEFFEE5345532F580E535EA
:100120005533F5A0E5385536F590E5395537F5B036
:100130001201D4AA34AB351201688A348B35AA383F
:10014000AB391201838A388B39DECDAA32AB33C387
:100150001201B98A328B33AA36AB37C312019E8A99
:10016000368B371FBF00A322EB23A2E09201FBEAEC
:1001700023A2E09200FAEBA20092E0FBEAA2019235
:10018000E0FA22EA03A2E79200FAEB03A2E7920167
:10019000FBEBA20092E7FBEAA20192E7FA22EA3324
:1001A000A2E09200FAEB23A2E09201FBEBA2009204
:1001B000E0FBEAA20192E0FA22EB13A2E79201FB34
:1001C000EA03A2E79200FAEBA20092E7FBEAA2019F
:1001D00092E7FA22C000C001786479FAD9FED8FA11
:0501E000D001D0002257
:00000001FF
