:10000000020003D2B5D2B79000697900E993C2B576
:100010001470FD09E993D2B51470FD09B960ED9033
:1000200000C97900E993C2B51470FD09E993D2B50E
:100030001470FD09B960ED9000697900E993C2B7C9
:100040001470FD09E993D2B71470FD09B960ED9001
:1000500000C97900E993C2B71470FD09E993D2B7DA
:100060001470FD09B960ED809E01630262055F07AF
:100070005D0A5A0C580F5511531351164E184C1A4D
:100080004A1D471F4521432341263E283C2A3A2C3E
:10009000382E36303432323331352F372D392B3A32
:1000A0002A3C283D273F2540244123422243214426
:1000B00020451F461E471D481C491B491B4A1A4A1A
:1000C0001A4B194B194B194B194B194B194B194B0F
:1000D000194A1A4A1A491B491B481C471D461E4506
:1000E0001F442043214222412340243F253D273CF9
:1000F000283A2A392B372D352F3331323230342EEE
:10010000362C382A3A283C263E234121431F451DE0
:10011000471A4A184C164E135111530F550C580AD2
:090120005A075D055F02620163EC
:00000001FF
