:030000000200AA51
:10002B001520C2CF32C0E0C0E054016005D0E0140F
:10003B008004D0E0800003D5E0FD7414D5E0FDD042
:10004B00E022C0E075CB0075CA0085CBCD85CACC4C
:10005B00F52075C800D2ADD2AFD2CA74EE113011F3
:10006B0030113011301130E87006E520601480FA41
:10007B00C2A0E81130E5206009D2A0E91130E520DB
:10008B0070EED2A0C2AFC2ADC2CAD0E022E493F8E8
:10009B00A3E493F9A3E493A36004114D80EF2275BD
:1000AB00F0017583007582BA1198D5F0F280F0E1FA
:1000BB00E104A6A60482820452530C43430C5B5BFF
:1000CB00046D6E048282046D6E0C82820CE1E1047D
:1000DB00C2C204A6A60482820C6D6E0C828204A698
:1000EB00A604E1E104C2C210000004828204A6A6A9
:1000FB000482820452530C6D6E0C828204A6A604F9
:10010B00E1E104E1E10CC2C20CA6A604C2C204A642
:10011B00A60482820C6D6E0CC2C204A6A604C2C2D7
:0A012B0004E1E110000008000000EC
:00000001FF
